{
  "jsonrpc": "2.0",
  "result": {
    "author": "0xf927a40c8b7f6e07c5af7fa2155b4864a4112b13",
    "difficulty": "0x153d23aa503",
    "extraData": "0x476574682f76312e302e312f6c696e75782f676f312e342e32",
    "gasLimit": "0xa48d",
    "gasUsed": "0xa410",
    "hash": "0x944f09177142833c644c979a83900d8cae1ee67369774b88b3b330bb72825082",
    "logsBloom": "0x00000000000000000000000000000000000000000000000000000000000000000000000000000000000000000000000000000000000000000000000000000000000000000000000000000000000000000000000000000000000000000000000000000000000000000000000000000000000000000000000000000000000000000000000000000000000000000000000000000000000000000000000000000000000000000000000000000000000000000000000000000000000000000000000000000000000000000000000000000000000000000000000000000000000000000000000000000000000000000000000000000000000000000000000000000000",
    "miner": "0xf927a40c8b7f6e07c5af7fa2155b4864a4112b13",
    "mixHash": "0x7db0f956effd39acc65cfd014daf743b3bdc1f4c2967cd30141570d61ae136d7",
    "nonce": "0x52cf720359834975",
    "number": "0xb873",
    "parentHash": "0x889c421abc62a48641eee140519e6da8c9dc01d85d8f5c4fbc3c13e3c6e4cb3e",
    "receiptsRoot": "0x9c8327de15d9d1668feb6e3583ddc337fb857620a5a3ff66d0d66148864b9d55",
    "sealFields": [
      "0xa07db0f956effd39acc65cfd014daf743b3bdc1f4c2967cd30141570d61ae136d7",
      "0x8852cf720359834975"
    ],
    "sha3Uncles": "0x1dcc4de8dec75d7aab85b567b6ccd41ad312451b948a7413f0a142fd40d49347",
    "size": "0x2fb",
    "stateRoot": "0x05a16e52dbacec805dc881439ef54338e8324ee133a4dbbb8ab17f8c73290054",
    "timestamp": "0x55c46d06",
    "totalDifficulty": "0x9d33ada5a81b1b",
    "transactions": [
      {
        "blockHash": "0x944f09177142833c644c979a83900d8cae1ee67369774b88b3b330bb72825082",
        "blockNumber": "0xb873",
        "chainId": null,
        "condition": null,
        "creates": null,
        "from": "0xe6a7a1d47ff21b6321162aea7c6cb457d5476bca",
        "gas": "0x5208",
        "gasPrice": "0xe567e326b",
        "hash": "0xbd5ab8937e52a6244209d804471be4878df6c364bca0111dd6d05e0d3edf63cf",
        "input": "0x",
        "nonce": "0x4f",
        "publicKey": "0x9f0fc2dda3a37d2a7c5fa7ff5630551b06d88b7e9ff0c9ddbb59e3aa874f0438f5dd99d6c83fc2be5e46c8708fb099333a2ec046a31d31a75cf3c6c2e9be17bb",
        "r": "0x622261f6c8be0b208798e8ffbfdd5c7f34f1d9723887a5dc9414afe7d7e6da05",
        "raw": "0xf86c4f850e567e326b82520894e25e3a1947405a1f82dd8e3048a9ca471dc782e188734506b87887f100801ca0622261f6c8be0b208798e8ffbfdd5c7f34f1d9723887a5dc9414afe7d7e6da05a0460b192f2383ac1066aabfea8ac0837362285bde92fecdb2e899e1194dc4c55f",
        "s": "0x460b192f2383ac1066aabfea8ac0837362285bde92fecdb2e899e1194dc4c55f",
        "standardV": "0x1",
        "to": "0xe25e3a1947405a1f82dd8e3048a9ca471dc782e1",
        "transactionIndex": "0x0",
        "type": "0x0",
        "v": "0x1c",
        "value": "0x734506b87887f100"
      },
      {
        "blockHash": "0x944f09177142833c644c979a83900d8cae1ee67369774b88b3b330bb72825082",
        "blockNumber": "0xb873",
        "chainId": null,
        "condition": null,
        "creates": null,
        "from": "0xf9a19aea1193d9b9e4ef2f5b8c9ec8df93a22356",
        "gas": "0x5208",
        "gasPrice": "0xe3bea8a9a",
        "hash": "0x4bcc1dd0c56c0b767b1ee3cb8bce7df44518f1696205299e34eb53a5e00a863e",
        "input": "0x",
        "nonce": "0x1",
        "publicKey": "0x04c65d5cc3631a511c5b899b5f7e059947774e2fc3a9cf2dd3e8783996bbc16fa0950a8355aee8f85e7c4e43928c3105be0213c210b153b5db2e9e01e1dd0527",
        "r": "0x2f8ba5d5ababcbb358a38f1c2bc0b85213d380f32c92f68f78df90ad4e5a29f9",
        "raw": "0xf86c01850e3bea8a9a8252089432be343b94f860124dc4fee278fdcbd38c102d88881bbcddc457ade400801ca02f8ba5d5ababcbb358a38f1c2bc0b85213d380f32c92f68f78df90ad4e5a29f9a07d6e356aee799027f6337378bde0443630b7776bfe73d215b2a74da2b5f572c2",
        "s": "0x7d6e356aee799027f6337378bde0443630b7776bfe73d215b2a74da2b5f572c2",
        "standardV": "0x1",
        "to": "0x32be343b94f860124dc4fee278fdcbd38c102d88",
        "transactionIndex": "0x1",
        "type": "0x0",
        "v": "0x1c",
        "value": "0x1bbcddc457ade400"
      }
    ],
    "transactionsRoot": "0xd757552351d6a714feda148f8f6f1283e000e05ea407352d45bc9dfc4c16ffe9",
    "uncles": []
  },
  "id": 1
}
