{
  "jsonrpc": "2.0",
  "result": {
    "author": "0x9746c7e1ef2bd21ff3997fa467593a89cb852bd0",
    "difficulty": "0x153fcba3c4a",
    "extraData": "0x476574682f76312e302e312f77696e646f77732f676f312e342e32",
    "gasLimit": "0xa465",
    "gasUsed": "0xa410",
    "hash": "0x889c421abc62a48641eee140519e6da8c9dc01d85d8f5c4fbc3c13e3c6e4cb3e",
    "logsBloom": "0x00000000000000000000000000000000000000000000000000000000000000000000000000000000000000000000000000000000000000000000000000000000000000000000000000000000000000000000000000000000000000000000000000000000000000000000000000000000000000000000000000000000000000000000000000000000000000000000000000000000000000000000000000000000000000000000000000000000000000000000000000000000000000000000000000000000000000000000000000000000000000000000000000000000000000000000000000000000000000000000000000000000000000000000000000000000",
    "miner": "0x9746c7e1ef2bd21ff3997fa467593a89cb852bd0",
    "mixHash": "0xfa4ab37bc8ef9ca8e95ca2c92135d5e5c4451b25040e454b6deb422c5f48e586",
    "nonce": "0xfaa1e51d379b21f7",
    "number": "0xb872",
    "parentHash": "0xfc1dd3249585b593ad18822a95873c75779ccbe8a420b457be380b977fc38e87",
    "receiptsRoot": "0xf0afaf08454f89092907f820c40db77afbd0270f179166907dc110f9723972d7",
    "sealFields": [
      "0xa0fa4ab37bc8ef9ca8e95ca2c92135d5e5c4451b25040e454b6deb422c5f48e586",
      "0x88faa1e51d379b21f7"
    ],
    "sha3Uncles": "0x1dcc4de8dec75d7aab85b567b6ccd41ad312451b948a7413f0a142fd40d49347",
    "size": "0x2fe",
    "stateRoot": "0xab6d1b109c04c1f43f86da33ece31689d9ba1c44ea809d0979c05057a0703c28",
    "timestamp": "0x55c46cdd",
    "totalDifficulty": "0x9d3259d36d7618",
    "transactions": [
      {
        "blockHash": "0x889c421abc62a48641eee140519e6da8c9dc01d85d8f5c4fbc3c13e3c6e4cb3e",
        "blockNumber": "0xb872",
        "chainId": null,
        "condition": null,
        "creates": null,
        "from": "0x1406854d149e081ac09cb4ca560da463f3123059",
        "gas": "0x9c40",
        "gasPrice": "0xe7d085b7e",
        "hash": "0x99f1097abd8f33a68f0ed63d60de5f3e7e2a3e0579b90d5f46a4f201c658b46d",
        "input": "0x",
        "nonce": "0x9",
        "publicKey": "0x20de362c2ce12c75da719cbc710f2d2efa35b7dc0da347fdc953dad40375457a93d9cdfa6d53131a4a29a9cf04bca7edc016dd7936cb7a9f9a465381c0d366ab",
        "r": "0xd3c39a9c531e2c6eb4c11355d0e553ff8f39e136d121109dd7163b8ac759b5d9",
        "raw": "0xf86d09850e7d085b7e829c4094a0e74ae010d51894734c308d612131056bb721ad8905f68e8131ecf80000801ba0d3c39a9c531e2c6eb4c11355d0e553ff8f39e136d121109dd7163b8ac759b5d9a06bd9643ce14a57db154a3e5fb1af12cd6854e00e3e82ceb8b1e06b336b44af93",
        "s": "0x6bd9643ce14a57db154a3e5fb1af12cd6854e00e3e82ceb8b1e06b336b44af93",
        "standardV": "0x0",
        "to": "0xa0e74ae010d51894734c308d612131056bb721ad",
        "transactionIndex": "0x0",
        "type": "0x0",
        "v": "0x1b",
        "value": "0x5f68e8131ecf80000"
      },
      {
        "blockHash": "0x889c421abc62a48641eee140519e6da8c9dc01d85d8f5c4fbc3c13e3c6e4cb3e",
        "blockNumber": "0xb872",
        "chainId": null,
        "condition": null,
        "creates": null,
        "from": "0xe6a7a1d47ff21b6321162aea7c6cb457d5476bca",
        "gas": "0x5208",
        "gasPrice": "0xe7cc476bd",
        "hash": "0x95844e6c54b4aafc8e1f75784127529280e75c3a980d91f6dfca1c1b0eb078fb",
        "input": "0x",
        "nonce": "0x4e",
        "publicKey": "0x9f0fc2dda3a37d2a7c5fa7ff5630551b06d88b7e9ff0c9ddbb59e3aa874f0438f5dd99d6c83fc2be5e46c8708fb099333a2ec046a31d31a75cf3c6c2e9be17bb",
        "r": "0x575f2d6750ed42ef50f6fa356c27e3d4c42f7c97f5217f16fac794bbf05f84f6",
        "raw": "0xf86c4e850e7cc476bd82520894ee80ef3c49d9465c7fc2b3d7373fdbbbc3fe282f8870f89193d7505e40801ca0575f2d6750ed42ef50f6fa356c27e3d4c42f7c97f5217f16fac794bbf05f84f6a02e709c44893f46894f687664d3d2cf396b7c8b2cb73e817cee25a68fdd1e76a0",
        "s": "0x2e709c44893f46894f687664d3d2cf396b7c8b2cb73e817cee25a68fdd1e76a0",
        "standardV": "0x1",
        "to": "0xee80ef3c49d9465c7fc2b3d7373fdbbbc3fe282f",
        "transactionIndex": "0x1",
        "type": "0x0",
        "v": "0x1c",
        "value": "0x70f89193d7505e40"
      }
    ],
    "transactionsRoot": "0xdef39a3afcfb55fabd16d7d5a19d8b078cb95a117ea9596af289525eb8592982",
    "uncles": []
  },
  "id": 1
}
