{
    "txid": "0d37522b89f991f8433b80f709ad31862a54435cd003f25732fe405e9db93216",
    "hash": "0d37522b89f991f8433b80f709ad31862a54435cd003f25732fe405e9db93216",
    "version": 1,
    "size": 135,
    "vsize": 135,
    "locktime": 0,
    "vin": [
        {
            "coinbase": "0415112a1c021a07",
            "sequence": 4294967295
        }
    ],
    "vout": [
        {
            "value": 50.00000000,
            "n": 0,
            "scriptPubKey": {
                "asm": "042fed00631fa3eb571505746213f9ae723145233db0fadcf9f0b79132f0adadf9fa264876aeafc1449cb56b56d4329bc6bed2a8594209c4ea2b4a738e6fe920d4 OP_CHECKSIG",
                "hex": "41042fed00631fa3eb571505746213f9ae723145233db0fadcf9f0b79132f0adadf9fa264876aeafc1449cb56b56d4329bc6bed2a8594209c4ea2b4a738e6fe920d4ac",
                "reqSigs": 1,
                "type": "pubkey",
                "addresses": [
                    "18dxbN6m8zxieN8F9BchXmhbeXUdFLr8fD"
                ]
            }
        }
    ],
    "hex": "01000000010000000000000000000000000000000000000000000000000000000000000000ffffffff080415112a1c021a07ffffffff0100f2052a010000004341042fed00631fa3eb571505746213f9ae723145233db0fadcf9f0b79132f0adadf9fa264876aeafc1449cb56b56d4329bc6bed2a8594209c4ea2b4a738e6fe920d4ac00000000",
    "blockhash": "0000000009454ccca0029d7a22f4caa3d228a48d1d22fdbfa1e13cd3f1089b30",
    "confirmations": 502303,
    "time": 1270857545,
    "blocktime": 1270857545
}