{
    "txid": "76a8d70a757be5055f60be076b683897cadaad6b7bdf78c43e39b9d59cb4a6ea",
    "hash": "76a8d70a757be5055f60be076b683897cadaad6b7bdf78c43e39b9d59cb4a6ea",
    "version": 1,
    "size": 134,
    "vsize": 134,
    "locktime": 0,
    "vin": [
        {
            "coinbase": "0415112a1c0117",
            "sequence": 4294967295
        }
    ],
    "vout": [
        {
            "value": 50.00000000,
            "n": 0,
            "scriptPubKey": {
                "asm": "047d78caf51bd9ed289bbb3203eb1baa8585df39fabe76ad51107ad6741d8cd775ea46f750af5931335a58ee8fab669b21abc7c296367229750e852d53dde6b5e7 OP_CHECKSIG",
                "hex": "41047d78caf51bd9ed289bbb3203eb1baa8585df39fabe76ad51107ad6741d8cd775ea46f750af5931335a58ee8fab669b21abc7c296367229750e852d53dde6b5e7ac",
                "reqSigs": 1,
                "type": "pubkey",
                "addresses": [
                    "1DoQeKfU3dYhN9bxMpFFcVUnufCPDqSPae"
                ]
            }
        }
    ],
    "hex": "01000000010000000000000000000000000000000000000000000000000000000000000000ffffffff070415112a1c0117ffffffff0100f2052a010000004341047d78caf51bd9ed289bbb3203eb1baa8585df39fabe76ad51107ad6741d8cd775ea46f750af5931335a58ee8fab669b21abc7c296367229750e852d53dde6b5e7ac00000000",
    "blockhash": "0000000028b90c57327bab3e0d2949954442fae8ea9b54848b21fe3598143393",
    "confirmations": 502359,
    "time": 1270830760,
    "blocktime": 1270830760
}